{
  "contractName": "Todos",
  "abi": [
    {
      "inputs": [
        {
          "internalType": "uint256",
          "name": "",
          "type": "uint256"
        }
      ],
      "name": "AllUsers",
      "outputs": [
        {
          "internalType": "string",
          "name": "username",
          "type": "string"
        },
        {
          "internalType": "uint256",
          "name": "password",
          "type": "uint256"
        }
      ],
      "stateMutability": "view",
      "type": "function"
    },
    {
      "inputs": [
        {
          "internalType": "string",
          "name": "_username",
          "type": "string"
        },
        {
          "internalType": "uint256",
          "name": "_password",
          "type": "uint256"
        }
      ],
      "name": "CreateAccount",
      "outputs": [],
      "stateMutability": "nonpayable",
      "type": "function"
    },
    {
      "inputs": [
        {
          "internalType": "string",
          "name": "_username",
          "type": "string"
        },
        {
          "internalType": "uint256",
          "name": "_password",
          "type": "uint256"
        }
      ],
      "name": "Login",
      "outputs": [
        {
          "internalType": "string",
          "name": "",
          "type": "string"
        }
      ],
      "stateMutability": "view",
      "type": "function"
    }
  ],
  "bytecode": "0x608060405234801561001057600080fd5b50610b0d806100206000396000f3fe608060405234801561001057600080fd5b50600436106100415760003560e01c8063018301ba146100465780639556d0461461006257806396ba3ffa14610092575b600080fd5b610060600480360381019061005b91906104dc565b6100c3565b005b61007c600480360381019061007791906104dc565b610129565b60405161008991906105b7565b60405180910390f35b6100ac60048036038101906100a791906105d9565b610290565b6040516100ba929190610615565b60405180910390f35b6000604051806040016040528084815260200183815250908060018154018082558091505060019003906000526020600020906002020160009091909190915060008201518160000190816101189190610851565b506020820151816001015550505050565b606060005b600080549050811015610250578360405160200161014c919061095f565b604051602081830303815290604052805190602001206000828154811061017657610175610976565b5b90600052602060002090600202016000016040516020016101979190610a28565b604051602081830303815290604052805190602001200361023d5782600082815481106101c7576101c6610976565b5b9060005260206000209060020201600101540361021c576040518060400160405280600981526020017f4c6f6767656420696e000000000000000000000000000000000000000000000081525091505061028a565b604051806060016040528060218152602001610ab76021913991505061028a565b808061024890610a6e565b91505061012e565b506040518060400160405280600e81526020017f55736572204e6f7420466f756e6400000000000000000000000000000000000081525090505b92915050565b600081815481106102a057600080fd5b90600052602060002090600202016000915090508060000180546102c390610674565b80601f01602080910402602001604051908101604052809291908181526020018280546102ef90610674565b801561033c5780601f106103115761010080835404028352916020019161033c565b820191906000526020600020905b81548152906001019060200180831161031f57829003601f168201915b5050505050908060010154905082565b6000604051905090565b600080fd5b600080fd5b600080fd5b600080fd5b6000601f19601f8301169050919050565b7f4e487b7100000000000000000000000000000000000000000000000000000000600052604160045260246000fd5b6103b38261036a565b810181811067ffffffffffffffff821117156103d2576103d161037b565b5b80604052505050565b60006103e561034c565b90506103f182826103aa565b919050565b600067ffffffffffffffff8211156104115761041061037b565b5b61041a8261036a565b9050602081019050919050565b82818337600083830152505050565b6000610449610444846103f6565b6103db565b90508281526020810184848401111561046557610464610365565b5b610470848285610427565b509392505050565b600082601f83011261048d5761048c610360565b5b813561049d848260208601610436565b91505092915050565b6000819050919050565b6104b9816104a6565b81146104c457600080fd5b50565b6000813590506104d6816104b0565b92915050565b600080604083850312156104f3576104f2610356565b5b600083013567ffffffffffffffff8111156105115761051061035b565b5b61051d85828601610478565b925050602061052e858286016104c7565b9150509250929050565b600081519050919050565b600082825260208201905092915050565b60005b83811015610572578082015181840152602081019050610557565b60008484015250505050565b600061058982610538565b6105938185610543565b93506105a3818560208601610554565b6105ac8161036a565b840191505092915050565b600060208201905081810360008301526105d1818461057e565b905092915050565b6000602082840312156105ef576105ee610356565b5b60006105fd848285016104c7565b91505092915050565b61060f816104a6565b82525050565b6000604082019050818103600083015261062f818561057e565b905061063e6020830184610606565b9392505050565b7f4e487b7100000000000000000000000000000000000000000000000000000000600052602260045260246000fd5b6000600282049050600182168061068c57607f821691505b60208210810361069f5761069e610645565b5b50919050565b60008190508160005260206000209050919050565b60006020601f8301049050919050565b600082821b905092915050565b6000600883026107077fffffffffffffffffffffffffffffffffffffffffffffffffffffffffffffffff826106ca565b61071186836106ca565b95508019841693508086168417925050509392505050565b6000819050919050565b600061074e610749610744846104a6565b610729565b6104a6565b9050919050565b6000819050919050565b61076883610733565b61077c61077482610755565b8484546106d7565b825550505050565b600090565b610791610784565b61079c81848461075f565b505050565b5b818110156107c0576107b5600082610789565b6001810190506107a2565b5050565b601f821115610805576107d6816106a5565b6107df846106ba565b810160208510156107ee578190505b6108026107fa856106ba565b8301826107a1565b50505b505050565b600082821c905092915050565b60006108286000198460080261080a565b1980831691505092915050565b60006108418383610817565b9150826002028217905092915050565b61085a82610538565b67ffffffffffffffff8111156108735761087261037b565b5b61087d8254610674565b6108888282856107c4565b600060209050601f8311600181146108bb57600084156108a9578287015190505b6108b38582610835565b86555061091b565b601f1984166108c9866106a5565b60005b828110156108f1578489015182556001820191506020850194506020810190506108cc565b8683101561090e578489015161090a601f891682610817565b8355505b6001600288020188555050505b505050505050565b600081905092915050565b600061093982610538565b6109438185610923565b9350610953818560208601610554565b80840191505092915050565b600061096b828461092e565b915081905092915050565b7f4e487b7100000000000000000000000000000000000000000000000000000000600052603260045260246000fd5b600081546109b281610674565b6109bc8186610923565b945060018216600081146109d757600181146109ec57610a1f565b60ff1983168652811515820286019350610a1f565b6109f5856106a5565b60005b83811015610a17578154818901526001820191506020810190506109f8565b838801955050505b50505092915050565b6000610a3482846109a5565b915081905092915050565b7f4e487b7100000000000000000000000000000000000000000000000000000000600052601160045260246000fd5b6000610a79826104a6565b91507fffffffffffffffffffffffffffffffffffffffffffffffffffffffffffffffff8203610aab57610aaa610a3f565b5b60018201905091905056fe5573657220666f756e642062757420496e636f72726563742050617373776f7264a264697066735822122032921b6e06f2e5fd7f4561215c754d7b40edd3fcc6bc84290a2debb05533a86a64736f6c63430008110033",
  "immutableReferences": {},
  "source": "// SPDX-License-Identifier: MIT\npragma solidity >=0.4.22 <0.9.0;\n\ncontract Todos {\n  struct Users{\n        string username;\n        uint256 password;\n    }\n\n    Users[] public AllUsers;\n\n    function CreateAccount(string memory _username, uint256 _password) public{\n        AllUsers.push(Users(_username, _password));\n    }\n\n    function Login(string memory _username, uint256 _password) public view returns(string memory){\n        for (uint256 i = 0; i < AllUsers.length; i++){\n            if(keccak256(abi.encodePacked(AllUsers[i].username)) == keccak256(abi.encodePacked(_username))){\n                if(AllUsers[i].password == _password){\n                    return 'Logged in';\n                }else{\n                    return 'User found but Incorrect Password';\n                }\n            }\n        }\n\n        return 'User Not Found';\n    }\n  \n}\n\n\n",
  "sourcePath": "C:\\Users\\James\\tests\\contracts\\Todos.sol",
  "compiler": {
    "name": "solc",
    "version": "0.8.17+commit.8df45f5f.Emscripten.clang"
  },
  "schemaVersion": "3.4.10",
  "updatedAt": "2022-09-19T21:10:24.429Z",
  "devdoc": {
    "kind": "dev",
    "methods": {},
    "version": 1
  },
  "userdoc": {
    "kind": "user",
    "methods": {},
    "version": 1
  }
}